:100000000C94EC000C9414010C9414010C94140145
:100010000C9414010C9414010C9414010C9414010C
:100020000C9414010C9414010C9482090C94F104A6
:100030000C9414010C9414010C9414010C941401EC
:100040000C9414010C9414010C9414010C941401DC
:100050000C9414010C9414010C9414010C94E607F4
:100060000C9414010C94B4070C948E070C94140196
:100070000C9414010C9414010C9414010C941401AC
:100080000C9414010C9414010C9414010C9414019C
:100090000C9414010C9414010C9414010C9414018C
:1000A0000C9414010C9414010C9414011203150304
:1000B000040308030C0336033603360319031D0338
:1000C000210327032B033603310300000000240023
:1000D00027002A002D003000000000002500280025
:1000E0002B002E0031000000000200090F00000369
:1000F0000401000C000000000000000000000000EF
:100100000000000000080B000202020100090400C8
:100110000001020200000524001001052401010174
:10012000042402060524060001070581031000408F
:1001300009040100020A0000000705020240000055
:1001400007058302400000040309044172647569D5
:100150006E6F204C4C430041726475696E6F204D88
:100160006963726F001201000200000040412337F2
:100170008000010102030112010002EF020140416F
:100180002337800001010203010000000023002644
:100190000029002C002F00040404040403040502B9
:1001A0000202020403020202020606060606060412
:1001B00004020202040404080201104080401020DE
:1001C000408040800802040180402010020110801D
:1001D000102040402000D80D11241FBECFEFDAE0E0
:1001E000DEBFCDBF11E0A0E0B1E0E0E0F1E202C08F
:1001F00005900D92AA37B107D9F722E0AAE7B1E03E
:1002000001C01D92A63DB207E1F710E0CCEED0E0B0
:1002100004C02197FE010E94150ECB3ED107C9F7FD
:100220000E94390A0C947E100C9400004091D50174
:100230005091D6012091D3013091D4014217530738
:10024000B4F49091E8009570E1F39091E80092FD8C
:1002500019C08093F1008091D5019091D60101964B
:100260008F739927892B19F48EEF8093E800809182
:10027000D5019091D60101969093D6018093D50136
:1002800081E0089580E00895CF92DF92EF92FF928F
:100290000F931F93CF93DF931F92CDB7DEB7182F25
:1002A000062FE42E862F880F8E5F99830E941601F9
:1002B00083E00E941601F12EC12E9981D92E8C2D3A
:1002C0008F19801798F4F601E7FE02C0849101C0EF
:1002D00080810E941601182F80E00E941601812360
:1002E000FFEFCF1ADF0A8111EACF01C081E00F9042
:1002F000DF91CF911F910F91FF90EF90DF90CF9002
:100300000895DF92EF92FF920F931F93CF93DF93A5
:10031000D82E8A017B01E40EF51EEB01CE15DF0518
:1003200071F0D7FE03C0FE01849101C088810E9454
:10033000160121968111F2CF8FEF9FEF01C0C80106
:10034000DF91CF911F910F91FF90EF90DF90089573
:10035000615030F02091F100FC0120830196F8CF2C
:10036000289A84E68093DB010895CF92DF92EF9282
:10037000FF920F931F93CF93DF936C017A018B0150
:10038000C0E0D0E0CE15DF0589F0D8016D918D0178
:10039000D601ED91FC910190F081E02DC601099507
:1003A000892B11F47E0102C02196ECCFC701DF91A9
:1003B000CF911F910F91FF90EF90DF90CF90089514
:1003C000FC01918D828D981761F0828DDF01A80F5D
:1003D000B11D5D968C91928D9F5F9F73928F90E07F
:1003E00008958FEF9FEF0895FC01918D828D9817EE
:1003F00031F0828DE80FF11D858D90E008958FEF2B
:100400009FEF0895FC01918D228D892F90E0805CF3
:100410009F4F821B91098F73992708958DED91E06D
:100420000E94020221E0892B09F420E0822F089526
:10043000FC01848DDF01A80FB11DA35ABF4F2C9181
:10044000848D90E001968F739927848FA689B78950
:100450002C93A089B1898C9180648C93938D848D29
:10046000981306C00288F389E02D80818F7D8083F8
:100470000895EF92FF920F931F93CF93DF93EC01B8
:1004800081E0888F9B8D8C8D981305C0E889F98950
:10049000808185FD24C0F62E0B8D10E00F5F1F4F6D
:1004A0000F731127E02E8C8DE8120CC00FB607FCDD
:1004B000FACFE889F989808185FFF5CFCE010E94C6
:1004C0001802F1CF8B8DFE01E80FF11DE35AFF4FAB
:1004D000F0820B8FEA89FB898081806207C0EE89F8
:1004E000FF896083E889F98980818064808381E065
:1004F00090E0DF91CF911F910F91FF90EF900895C1
:10050000CF93DF93EC01888D8823C9F0EA89FB89BA
:10051000808185FD05C0A889B9898C9186FD0FC0B1
:100520000FB607FCF5CF808185FFF2CFA889B98986
:100530008C9185FFEDCFCE010E941802E7CFDF91AD
:10054000CF91089580E090E0892B29F00E940E025F
:1005500081110C9400000895CF93DF931F92CDB7C3
:10056000DEB76983DC01ED91FC910280F381E02D1F
:1005700041E050E0BE016F5F7F4F09950F90DF9122
:10058000CF91089583E08093E9008091F200882361
:1005900019F08AE38093E8000895FC01848595852D
:1005A00097FD0BC09FB7F89482E08093E90080919B
:1005B000F2009FBF90E0019608959FB7F89482E003
:1005C0008093E9008091F2009FBF90E00895362F5C
:1005D00090E0FC01EA51FF4F4491FC01EA54FE4FC8
:1005E0002491FC01E956FE4F8491882309F451C0FF
:1005F0004423E1F150E0FA013197EF30F105B0F515
:10060000EA5AFF4F0C94150E909180009F7707C017
:10061000909180009F7D03C090918000977F909380
:10062000800024C094B59F7702C094B59F7D94BD8F
:100630001DC0909190009F7707C0909190009F7D82
:1006400003C090919000977F909390000FC090917D
:10065000C0009F7703C09091C0009F7D9093C00021
:1006600005C09091C200977F9093C200E82FF0E000
:10067000EE0FFF1FE852FF4FA591B4918FB7F8948A
:10068000EC91311103C020952E2301C02E2B2C9309
:100690008FBF0895CF93DF9390E0FC01EA54FE4FA3
:1006A0002491FC01E956FE4F8491882361F190E08A
:1006B000880F991FFC01E653FF4FC591D491FC01AF
:1006C000E852FF4FA591B491611109C09FB7F8940A
:1006D0008881209582238883EC912E230BC0623081
:1006E00061F49FB7F8943881822F809583238883A3
:1006F000EC912E2B2C939FBF06C08FB7F894E88106
:100700002E2B28838FBFDF91CF9108953FB7F894A8
:1007100080917F0190918001A0918101B09182012F
:1007200026B5A89B05C02F3F19F00196A11DB11D4C
:100730003FBFBA2FA92F982F8827820F911DA11D87
:10074000B11DBC01CD0142E0660F771F881F991FC4
:100750004A95D1F708958F929F92AF92BF92CF9210
:10076000DF92EF92FF926B017C010E9486034B01A6
:100770005C01C114D104E104F104F1F00E9486038C
:10078000DC01CB0188199909AA09BB09883E93406D
:10079000A105B10570F321E0C21AD108E108F10802
:1007A00088EE880E83E0981EA11CB11CC114D104F0
:1007B000E104F10419F7DDCFFF90EF90DF90CF90C7
:1007C000BF90AF909F908F9008958F929F92AF921D
:1007D000BF92CF92DF92EF92FF920F931F93CF932E
:1007E000DF935C016B018A0180910B01882309F47E
:1007F0005EC08091DC01882309F459C08091D90141
:1008000080FF05C08091E00082608093E000E801F5
:100810008AEFF82E93E0E92E2FE3822E3AE3932E0F
:10082000209709F43DC08FB7F894E092E9009091C9
:10083000E80095FF06C09091F200282D291B922F09
:1008400001C090E08FBF91110AC0FA94FF2079F1A6
:1008500061E070E080E090E00E94AB03E1CF292FDF
:1008600030E0C217D3070CF49C2F8FB7F894E092B6
:10087000E9002091E80025FF11C0292F30E0C21BBC
:10088000D30BF601915020F041914093F100FACF43
:10089000C20ED31E9091E80095FF13C08FBFC0CF4A
:1008A0005D9A84E68093DA011016110644F081E027
:1008B00090E0F5019383828380E090E005C0C80159
:1008C00003C09092E800EACFDF91CF911F910F9182
:1008D000FF90EF90DF90CF90BF90AF909F908F9060
:1008E00008952FB7F89460917B0170917C018091FD
:1008F0007D0190917E012FBF08950F931F93CF9399
:10090000DF931F92CDB7DEB782E0898342E450E0E7
:1009100065E071E080E80E9481010E946E09DC01BF
:1009200012960D911C9113970115110569F0D801CC
:10093000ED91FC910280F381E02DBE016F5F7F4F4E
:10094000C801099597FF07C089810F90DF91CF916A
:100950001F910F910895F80100851185E5CF0F9340
:100960001F93CF93DF931F92CDB7DEB78C01FC01AD
:100970008485958597FF0EC0CE0101960E9444099B
:10098000019719F4298130E002C02FEF3FEFF80101
:1009900035872487F801848595850F90DF91CF9165
:1009A0001F910F910895CF93DF931F92CDB7DEB7BC
:1009B000FC018485958597FD05C02FEF3FEF3587B6
:1009C00024870BC0CE0101960E944409019719F4B7
:1009D000898190E002C08FEF9FEF0F90DF91CF9160
:1009E00008951F920F920FB60F921124CF92DF92AB
:1009F000EF92FF920F931F932F933F934F935F9329
:100A00006F937F938F939F93AF93BF93EF93FF93D6
:100A1000CF93DF93CDB7DEB76C97DEBFCDBF10921B
:100A2000E9008091E80083FFFAC168E0CE014596B5
:100A30000E94A80182EF8093E8008D8987FF05C09E
:100A40009091E80090FFFCCF03C09EEF9093E800E8
:100A5000982F907609F0C6C09E892F89188D911124
:100A60000CC0803829F48091D8018093F10002C035
:100A70001092F1001092F10047C1422F50E0512B2B
:100A8000913051F4811140C14130510509F03CC110
:100A90008091D8018D7F0BC0933061F4811134C1F6
:100AA0004130510509F030C18091D80182608093B6
:100AB000D8012AC1953041F48091E80080FFFCCF35
:100AC00020682093E30020C1963009F05FC0EB8CD2
:100AD000FC8C1092E9001092D6011092D5011230D0
:100AE00091F51092D4011092D3010E947D0499E0F7
:100AF000BE016F5F7F4FDB01E92F1D92EA95E9F799
:100B000099831A8391E09E8390EA98879AEF998758
:100B10002091D5013091D601275F3F4F3C832B8335
:100B20008D831092E9001092D6011092D501F092B7
:100B3000D401E092D30149E050E080E00E948101BD
:100B40000E947D04E1C0F092D401E092D3010E94A2
:100B50006E09DC011296ED90FC901397E114F104FC
:100B600009F4C0C0D701ED91FC910480F581E02D1E
:100B7000BE016B5E7F4FC7010995009719F00CF01D
:100B8000C3C0C6C0F701E084F184E8CF973009F410
:100B9000BFC0983021F481E08093F100B5C0993056
:100BA00009F0B2C0837009F0B3C0EFE0F1E081E07A
:100BB00021E036E39081992361F08093E90020934E
:100BC000EB0091919093EC003093ED008F5F8730B4
:100BD00089F78EE78093EA001092EA008F8980936C
:100BE000DC0192C08B8D9C8D1092E9001092D60191
:100BF0001092D5019093D4018093D301898D8111F6
:100C000056C08E899D89913A59F4813209F080C08D
:100C100047E050E064E071E080E00E94810174C030
:100C2000913209F075C0833289F4888D90E0982F55
:100C300088272F89822BA0E0B0E080930001909359
:100C40000101A0930201B09303015EC0803269F4F8
:100C50008091E80082FFFCCF67E084E091E00E9491
:100C6000A8018BEF8093E80006C0823209F04CC0E7
:100C70008F8980930B018091D701882319F0EEEFC3
:100C8000FAE002C0E0E0F8E08091040190910501F3
:100C9000A0910601B0910701803B9440A105B105E8
:100CA00009F088C080910B0180FFA0C083C00E9422
:100CB0006E09DC0112960D911C9113970115110517
:100CC00039F1D801ED91FC910190F081E02DBE0148
:100CD0006B5E7F4FC8010995811116C0F801008530
:100CE0001185ECCF1130C1F0133091F48F89882336
:100CF00009F455C08230E9F440E86DE087E591E001
:100D00000E944401882321F08EEF8093E80087C081
:100D100081E28093EB0083C08B8D9C8D089711F44A
:100D20001093D2018091D201811136C065E671E045
:100D300038C0813029F440E86BE08BE491E0E0CFEB
:100D4000833031F70E946E09DC011296ED90FC9021
:100D500013978E010F5F1F4F6801E114F10479F0C2
:100D6000D701ED91FC910680F781E02DB801C70114
:100D70000995080F111DF701E084F184EECFD80129
:100D80001C92F60101900020E9F73197BF016C1920
:100D90007D0940E0C601B4CF67E771E002C067E4B7
:100DA00071E06115710509F4B3CFFB01449150E086
:100DB00080E833CF0FB6F894A895809160008861E1
:100DC00080936000109260000FBEA895EE3F2AE06D
:100DD000F20739F08091FE0A9091FF0A9183808397
:100DE00093CF1092FF0A1092FE0A8ECFEE3F8AE058
:100DF000F80731F0808191819093FF0A8093FE0A79
:100E000087E797E7918380839BE088E10FB6F894AA
:100E1000A895809360000FBE9093600075CF6C968C
:100E20000FB6F894DEBF0FBECDBFDF91CF91FF911B
:100E3000EF91BF91AF919F918F917F916F915F9152
:100E40004F913F912F911F910F91FF90EF90DF9065
:100E5000CF900F900FBE0F901F90189561157105E0
:100E600079F0FB0101900020E9F73197AF01461BB3
:100E7000570BDC01ED91FC910280F381E02D099488
:100E800080E090E008954F925F926F927F92EF9290
:100E9000FF920F931F93CF93DF93CDB7DEB7A19748
:100EA0000FB6F894DEBF0FBECDBF7C01FA01CB01B7
:100EB00019A2223008F42AE08E010F5D1F4F422E46
:100EC000512C612C712CBF01A30192010E945C1076
:100ED000F901CA01015011096A3014F4605D01C0C2
:100EE000695CD8016C93232B242B252B61F7B80167
:100EF000C7010E942E07A1960FB6F894DEBF0FBE61
:100F0000CDBFDF91CF911F910F91FF90EF907F9018
:100F10006F905F904F9008950C942E071F920F9240
:100F20000FB60F9211242F933F934F935F936F93BC
:100F30007F938F939F93AF93BF93EF93FF938DED29
:100F400091E00E941802FF91EF91BF91AF919F91A4
:100F50008F917F916F915F914F913F912F910F9062
:100F60000FBE0F901F9018951F920F920FB60F9201
:100F700011242F938F939F93EF93FF93E091ED01B3
:100F8000F091EE018081E091F301F091F40182FD96
:100F900012C090818091F6018F5F8F732091F701CD
:100FA000821751F0E091F601F0E0E352FE4F958F89
:100FB0008093F60101C08081FF91EF919F918F9105
:100FC0002F910F900FBE0F901F9018951F920F92A8
:100FD0000FB60F9211242F933F938F939F93AF934C
:100FE000BF9380917B0190917C01A0917D01B09194
:100FF0007E0130917A0123E0230F2D3720F40196F2
:10100000A11DB11D05C026E8230F0296A11DB11D2B
:1010100020937A0180937B0190937C01A0937D01C2
:10102000B0937E0180917F0190918001A091810118
:10103000B09182010196A11DB11D80937F01909313
:101040008001A0938101B0938201BF91AF919F91E4
:101050008F913F912F910F900FBE0F901F90189579
:101060000E94330F4F925F926F927F928F929F9266
:10107000AF92BF92CF92DF92EF92FF926B017C0111
:10108000B42E9B01AC010E942E0F882319F06CE650
:1010900071E027C026013701E89477F82FEF3FEF82
:1010A0004FE75FE7C301B2010E942E0F81110DC00F
:1010B0002FEF3FEF4FE75FE7C301B2010E94380F08
:1010C00018161CF460E771E00CC02FEF3FEF4FE7FC
:1010D0005FE4C701B6010E94290F181694F464E773
:1010E00071E08DED91E0FF90EF90DF90CF90BF9099
:1010F000AF909F908F907F906F905F904F900C94E7
:101100002E072FEF3FEF4FE75FECC701B6010E94BC
:10111000380F87FDE4CF20E030E0A901C701B60118
:101120000E94380F87FF11C0E091DD01F091DE01D0
:101130000190F081E02D6DE28DED91E009954C017B
:10114000F7FAF094F7F8F09402C0812C912CA12CBE
:1011500060E070E080E09FE3AB1441F020E030E01D
:1011600040E251E40E94880EA394F6CF9B01AC01AB
:10117000C701B6010E941C0E2B013C010E94FA0E11
:101180006B017C010E943D0F9B01AC01C301B201C8
:101190000E941B0E2B013C012AE0B701A6018DED38
:1011A00091E00E9443077C01E80CF91CBB2041F050
:1011B00068E771E08DED91E00E942E07E80EF91EC0
:1011C000DB2CDD2031F120E030E040E251E4C301CE
:1011D000B2010E949E0F2B013C010E94FA0E4B01AE
:1011E000A12CB12C2AE0B501A4018DED91E00E9463
:1011F0004307E80EF91EC501B4010E943D0F9B0193
:10120000AC01C301B2010E941B0E2B013C01DA9418
:10121000D8CFC701FF90EF90DF90CF90BF90AF90F5
:101220009F908F907F906F905F904F9008950F9355
:101230001F9390E0FC01EA54FE4F6491FC01E956D3
:10124000FE4FE491F0E0EE0FFF1FE757FE4F859150
:10125000949100E412E42FE030E0462F0E94F4095C
:10126000611571058105910549F0DC01CB010196FD
:10127000A11DB11DBC01CD019F7003C060E070E0F5
:10128000CB011F910F910895FC018091DC01811128
:1012900003C08FEF9FEF08959FB7F89482E080938B
:1012A000E9002091F20030E01216130614F421E058
:1012B00030E02115310559F0289A84E68093DB014E
:1012C0008091F10080838091F200882319F09FBF04
:1012D000C90108958BE68093E800F9CF8091CE0292
:1012E00081110DC082E08093CA0284E08093CB021A
:1012F0001092CD021092CC0281E08093CE028AEC53
:1013000092E008951F920F920FB60F9211248F93BF
:101310009F938091E1009091E100937F9093E10091
:1013200083FF0FC01092E90091E09093EB001092C0
:10133000EC0092E39093ED001092DC0198E0909322
:10134000F00082FF20C093E09093E9009091F200BA
:10135000992319F09AE39093E8009091DA01992388
:1013600039F09091DA0191509093DA01992389F143
:101370009091DB01992339F09091DB01915090938A
:10138000DB01992341F184FF10C08091E2008E7E41
:1013900081608093E2008091E1008F7E8093E10084
:1013A0008091D9018E7E806111C080FF16C080912E
:1013B000E2008E7E80618093E2008091E1008E7E6B
:1013C0008093E1008091D9018E7E81608093D90164
:1013D00004C05D98CDCF2898D6CF9F918F910F9064
:1013E0000FBE0F901F901895CF92DF92EF92FF9251
:1013F0000F931F93E82FF92F05C001501109210900
:10140000310961F1908196239417B9F305C0015019
:1014100011092109310911F1908196239413F7CF15
:10142000C12CD12CE12CF12C0AC08FEFC81AD80A9C
:10143000E80AF80A0C151D052E053F0579F0808194
:101440008623841791F36C2D7D2D8E2D9F2D1F915A
:101450000F91FF90EF90DF90CF90089560E070E0E3
:1014600080E090E01F910F91FF90EF90DF90CF9080
:101470000895789484B5826084BD84B5816084BD0C
:1014800085B5826085BD85B5816085BD80916E0022
:10149000816080936E001092810080918100826053
:1014A0008093810080918100816080938100809190
:1014B00080008160809380008091910082608093A1
:1014C00091008091910081608093910080919000C3
:1014D0008160809390008091C10084608093C100FE
:1014E0008091C10082608093C1008091C1008160C1
:1014F0008093C1008091C30081608093C30080917C
:10150000C00082608093C0008091C200816080939F
:10151000C20080917A00846080937A0080917A0082
:10152000826080937A0080917A00816080937A0053
:1015300080917A00806880937A001092DC0110928A
:10154000D8011092D9018091D70081608093D70093
:1015500080EA8093D80089B5806189BD89B58260B1
:1015600089BD09B400FEFDCF61E070E080E090E04D
:101570000E94AB038091D8008F7C80618093D8005B
:101580008091E000807F8093E0008091E1008E7E7A
:101590008093E1008DE08093E200559A209A5D9857
:1015A0002898EEEFFFE7859194918B3F9C4D19F4BD
:1015B00081E08093D7011092C6011092C70110926A
:1015C000C8011092C90110929401109295011092D5
:1015D00096011092970160ED77E080E090E00E9424
:1015E000AB038AE792E09093C5018093C401CBE1FD
:1015F000D0E010910B016AE070E080E090E00E9482
:10160000AB03111109C0219739F064E670E080E066
:1016100090E00E94AB03EDCFE091C401F091C501D1
:101620008FEF9FEF958784870E947104009194014A
:10163000109195012091960130919701DC01CB0129
:10164000801B910BA20BB30B8197A105B10538F458
:1016500063E070E080E090E00E94AB03E5CF0E9481
:101660007104609394017093950180939601909317
:10167000970165E371E08091C4019091C5010E94DA
:101680008C076AE070E080E090E00E94AB0381E0AC
:1016900080939801E091ED01F091EE0182E080836A
:1016A000E091E901F091EA011082E091EB01F09103
:1016B000EC018FEC80831092F501E091F101F09143
:1016C000F20186E08083E091EF01F091F0018081EA
:1016D00080618083E091EF01F091F001808188606A
:1016E0008083E091EF01F091F00180818068808338
:1016F000E091EF01F091F00180818F7D808361E0C6
:1017000088E00E944A0360E087E00E944A0361E0AB
:1017100085E00E944A0360E086E00E944A0361E09F
:1017200083E00E944A0360E084E00E944A03C3E031
:10173000D0E003E210E0C12CD12C80E8E82E8FEB42
:10174000F82E0E947104672B682B692B09F07FC16A
:101750000E947104623071058105910508F077C11E
:101760003DC00E9471046093940170939501809331
:1017700096019093970167E471E08091C401909184
:10178000C5010E948C076FE471E08091C4019091C3
:10179000C5010E948C070E947104AB01BC012AE0C4
:1017A0008091C4019091C5010E94430761E571E0F9
:1017B0008091C4019091C5010E948C0762E070E0A5
:1017C00080E090E00E94AB036AE070E080E090E08F
:1017D0000E94AB0380919801811193C160E088E081
:1017E0000E94E702CE010197F1F761E088E00E94D4
:1017F000E702C8010197F1F760E088E00E94E70284
:1018000087E00E9417090E943D0F60938F0170933B
:10181000900180939101909392012DEC3CEC48E66D
:1018200052E40E94880E4B015C0120E030E048E465
:1018300053E40E94290F87FF12C020E030E0A90185
:10184000C501B4010E94380F18164CF480928B0128
:1018500090928C01A0928D01B0928E0108C0C0922E
:101860008B01D0928C01E0928D01F0928E0162E3A7
:1018700070E080E090E00E94AB0310928F01109224
:101880009001109291011092920160E085E00E9417
:10189000E702CE010197F1F761E085E00E94E702DF
:1018A000C8010197F1F760E085E00E94E70286E059
:1018B0000E9417090E943D0F60938F017093900161
:1018C00080939101909392012DEC3CEC48E652E418
:1018D0000E94880E4B015C0120E030E048E453E4B4
:1018E0000E94290F87FF12C020E030E0A901C50146
:1018F000B4010E94380F18164CF480928701909220
:101900008801A0928901B0928A0108C0C092870123
:10191000D0928801E0928901F0928A0162E370E03E
:1019200080E090E00E94AB0310928F011092900132
:10193000109291011092920160E083E00E94E70210
:10194000CE010197F1F761E083E00E94E702C80150
:101950000197F1F760E083E00E94E70284E00E94D3
:1019600017090E943D0F60938F017093900180933F
:101970009101909392012DEC3CEC48E652E40E94D8
:10198000880E4B015C0120E030E048E453E40E9403
:10199000290F87FF12C020E030E0A901C501B40182
:1019A0000E94380F18164CF48092830190928401A3
:1019B000A0928501B092860108C0C0928301D092A6
:1019C0008401E0928501F092860162E370E080E09C
:1019D00090E00E94AB0368E671E08DED91E00E941B
:1019E0008C0760918B0170918C0180918D01909199
:1019F0008E0142E00E9432086AE671E08DED91E0CE
:101A00000E948C0760918701709188018091890103
:101A100090918A0142E00E9432086AE671E08DED01
:101A200091E00E948C076091830170918401809104
:101A300085019091860142E00E9432086CE071E0DD
:101A40008DED91E00E948C070E94A2027ACE0E9446
:101A500071046093CE017093CF018093D001909375
:101A6000D1018090CA019090CB01A090CC01B090A0
:101A7000CD01681579058A059B0540F46093CA017C
:101A80007093CB018093CC019093CD018090CA01DB
:101A90009090CB01A090CC01B090CD019B01AC0106
:101AA000281939094A095B0949015A013AEF831695
:101AB0009104A104B10408F491CE6093CA0170931B
:101AC000CB018093CC019093CD010E947104809052
:101AD000940190909501A0909601B0909701DC013F
:101AE000CB0188199909AA09BB098197A105B105FC
:101AF00008F037CE63E070E080E090E00E94AB0336
:101B0000E4CF8091C4019091C501DC01ED91FC917D
:101B10000480F581E02D0995892B99F38091C4010A
:101B20009091C501DC01ED91FC910480F581E02DDF
:101B30000995181619060CF051CE8091C4019091A8
:101B4000C501DC01ED91FC910680F781E02D09953E
:101B500099278336910551F08637910509F43ECED9
:101B600088359105D9F610929801D8CF6AE571E0D1
:101B70008091C4019091C5010E948C072AE041E048
:101B800050E060E070E08091C4019091C5010E9436
:101B9000430761E671E08091C4019091C5010E9404
:101BA0008C0762E370E080E090E00E94AB0316CE09
:101BB000EDEDF1E01382128288EE93E0A0E0B0E058
:101BC00084839583A683B78329E131E03183208321
:101BD0002DEC30E0358724872CEC30E037872687E2
:101BE00028EC30E0318B208B29EC30E0338B228BDA
:101BF0002AEC30E0358B248B2EEC30E0378B268BB3
:101C0000118E128E138E148EEAE7F2E01382128286
:101C100084839583A683B78389E291E0918380834F
:101C20008FEF9FEF958784870895EE0FFF1F059034
:101C3000F491E02D09945058BB27AA270E94330E37
:101C40000C9422100E94141038F00E941B1020F0F7
:101C500039F49F3F19F426F40C9411100EF4E0951A
:101C6000E7FB0C940B10E92F0E94331058F3BA17BE
:101C7000620773078407950720F079F4A6F50C94A2
:101C800055100EF4E0950B2EBA2FA02D0B01B901C3
:101C900090010C01CA01A0011124FF27591B99F0E2
:101CA000593F50F4503E68F11A16F040A22F232FEE
:101CB000342F4427585FF3CF469537952795A7953E
:101CC000F0405395C9F77EF41F16BA0B620B730BE5
:101CD000840BBAF09150A1F0FF0FBB1F661F771F56
:101CE000881FC2F70EC0BA0F621F731F841F48F40B
:101CF000879577956795B795F7959E3F08F0B0CF94
:101D00009395880F08F09927EE0F9795879508957A
:101D10000E949C0E0C9422100E941B1058F00E94EE
:101D2000141040F029F45F3F29F00C940B1051116E
:101D30000C9456100C9411100E94331068F39923E0
:101D4000B1F3552391F3951B550BBB27AA276217B7
:101D50007307840738F09F5F5F4F220F331F441FC4
:101D6000AA1FA9F335D00E2E3AF0E0E832D09150F8
:101D70005040E695001CCAF72BD0FE2F29D0660FE5
:101D8000771F881FBB1F261737074807AB07B0E828
:101D900009F0BB0B802DBF01FF2793585F4F3AF02E
:101DA0009E3F510578F00C940B100C9456105F3F39
:101DB000E4F3983ED4F3869577956795B795F795B4
:101DC0009F5FC9F7880F911D9695879597F908959C
:101DD000E1E0660F771F881FBB1F62177307840738
:101DE000BA0720F0621B730B840BBA0BEE1F88F747
:101DF000E09508950E943B1088F09F5798F0B92F06
:101E00009927B751B0F0E1F0660F771F881F991F2F
:101E10001AF0BA95C9F714C0B13091F00E9455106C
:101E2000B1E008950C945510672F782F8827B85F7C
:101E300039F0B93FCCF3869577956795B395D9F787
:101E40003EF490958095709561957F4F8F4F9F4F91
:101E500008950E947A0F08F48FEF08950E947A0F78
:101E6000880B990B089581E090E0F8940C947E1013
:101E70000E947A0F08F481E00895E89409C097FB66
:101E80003EF490958095709561957F4F8F4F9F4F51
:101E90009923A9F0F92F96E9BB279395F695879595
:101EA00077956795B795F111F8CFFAF4BB0F11F458
:101EB00060FF1BC06F5F7F4F8F4F9F4F16C08823FF
:101EC00011F096E911C0772321F09EE8872F762F35
:101ED00005C0662371F096E8862F70E060E02AF076
:101EE0009A95660F771F881FDAF7880F9695879562
:101EF00097F90895990F0008550FAA0BE0E8FEEF37
:101F000016161706E807F907C0F012161306E407BD
:101F1000F50798F0621B730B840B950B39F40A26B6
:101F200061F0232B242B252B21F408950A2609F494
:101F3000A140A6958FEF811D811D08950E94B10FCC
:101F40000C9422100E94141038F00E941B1020F0F4
:101F5000952311F00C940B100C94111011240C9477
:101F600056100E94331070F3959FC1F3950F50E007
:101F7000551F629FF001729FBB27F00DB11D639F3B
:101F8000AA27F00DB11DAA1F649F6627B00DA11DE1
:101F9000661F829F2227B00DA11D621F739FB00D87
:101FA000A11D621F839FA00D611D221F749F3327F7
:101FB000A00D611D231F849F600D211D822F762F90
:101FC0006A2F11249F5750409AF0F1F088234AF06D
:101FD000EE0FFF1FBB1F661F771F881F91505040D9
:101FE000A9F79E3F510580F00C940B100C945610ED
:101FF0005F3FE4F3983ED4F3869577956795B79560
:10200000F795E7959F5FC1F7FE2B880F911D969579
:10201000879597F9089597F99F6780E870E060E0E9
:1020200008959FEF80EC089500240A941616170671
:1020300018060906089500240A94121613061406B9
:1020400005060895092E0394000C11F4882352F01C
:10205000BB0F40F4BF2B11F460FF04C06F5F7F4FD4
:102060008F4F9F4F089557FD9058440F551F59F0BB
:102070005F3F71F04795880F97FB991F61F09F3F75
:1020800079F087950895121613061406551FF2CF9E
:102090004695F1DF08C0161617061806991FF1CFEE
:1020A00086957105610508940895E894BB27662715
:1020B0007727CB0197F90895A1E21A2EAA1BBB1B23
:1020C000FD010DC0AA1FBB1FEE1FFF1FA217B30704
:1020D000E407F50720F0A21BB30BE40BF50B661F1A
:1020E000771F881F991F1A9469F7609570958095DE
:1020F00090959B01AC01BD01CF010895F894FFCFED
:10210000FFFFFFFF00E1000000000000000000C131
:102110008081000000000000003902B5010202E0E9
:1021200001F401800200000000AC02E503CD02D3FF
:1021300004AF04C202564D4450565F317C315F56A5
:102140004D4450560D0A00564D4450455F31007CB9
:10215000005F564D4450450D0A00564D4450435FB4
:10216000005F564D4450430D0A002C006E616E0016
:0A217000696E66006F7666002E00AF
:00000001FF
